{
  "_format": "hh-sol-artifact-1",
  "contractName": "NFT",
  "sourceName": "contracts/NFT.sol",
  "abi": [
    {
      "inputs": [],
      "stateMutability": "nonpayable",
      "type": "constructor"
    },
    {
      "inputs": [],
      "name": "Nft__ContentAlreadyOwned",
      "type": "error"
    },
    {
      "inputs": [],
      "name": "Nft__Only20NftsInThisCollection",
      "type": "error"
    },
    {
      "inputs": [],
      "name": "Nft__YouBetterPayUpMore",
      "type": "error"
    },
    {
      "anonymous": false,
      "inputs": [
        {
          "indexed": true,
          "internalType": "address",
          "name": "owner",
          "type": "address"
        },
        {
          "indexed": true,
          "internalType": "address",
          "name": "approved",
          "type": "address"
        },
        {
          "indexed": true,
          "internalType": "uint256",
          "name": "tokenId",
          "type": "uint256"
        }
      ],
      "name": "Approval",
      "type": "event"
    },
    {
      "anonymous": false,
      "inputs": [
        {
          "indexed": true,
          "internalType": "address",
          "name": "owner",
          "type": "address"
        },
        {
          "indexed": true,
          "internalType": "address",
          "name": "operator",
          "type": "address"
        },
        {
          "indexed": false,
          "internalType": "bool",
          "name": "approved",
          "type": "bool"
        }
      ],
      "name": "ApprovalForAll",
      "type": "event"
    },
    {
      "anonymous": false,
      "inputs": [
        {
          "indexed": true,
          "internalType": "address",
          "name": "previousOwner",
          "type": "address"
        },
        {
          "indexed": true,
          "internalType": "address",
          "name": "newOwner",
          "type": "address"
        }
      ],
      "name": "OwnershipTransferred",
      "type": "event"
    },
    {
      "anonymous": false,
      "inputs": [
        {
          "indexed": true,
          "internalType": "address",
          "name": "from",
          "type": "address"
        },
        {
          "indexed": true,
          "internalType": "address",
          "name": "to",
          "type": "address"
        },
        {
          "indexed": true,
          "internalType": "uint256",
          "name": "tokenId",
          "type": "uint256"
        }
      ],
      "name": "Transfer",
      "type": "event"
    },
    {
      "inputs": [
        {
          "internalType": "address",
          "name": "to",
          "type": "address"
        },
        {
          "internalType": "uint256",
          "name": "tokenId",
          "type": "uint256"
        }
      ],
      "name": "approve",
      "outputs": [],
      "stateMutability": "nonpayable",
      "type": "function"
    },
    {
      "inputs": [
        {
          "internalType": "address",
          "name": "owner",
          "type": "address"
        }
      ],
      "name": "balanceOf",
      "outputs": [
        {
          "internalType": "uint256",
          "name": "",
          "type": "uint256"
        }
      ],
      "stateMutability": "view",
      "type": "function"
    },
    {
      "inputs": [
        {
          "internalType": "string",
          "name": "",
          "type": "string"
        }
      ],
      "name": "existingURIs",
      "outputs": [
        {
          "internalType": "uint8",
          "name": "",
          "type": "uint8"
        }
      ],
      "stateMutability": "view",
      "type": "function"
    },
    {
      "inputs": [
        {
          "internalType": "uint256",
          "name": "tokenId",
          "type": "uint256"
        }
      ],
      "name": "getApproved",
      "outputs": [
        {
          "internalType": "address",
          "name": "",
          "type": "address"
        }
      ],
      "stateMutability": "view",
      "type": "function"
    },
    {
      "inputs": [
        {
          "internalType": "address",
          "name": "owner",
          "type": "address"
        },
        {
          "internalType": "address",
          "name": "operator",
          "type": "address"
        }
      ],
      "name": "isApprovedForAll",
      "outputs": [
        {
          "internalType": "bool",
          "name": "",
          "type": "bool"
        }
      ],
      "stateMutability": "view",
      "type": "function"
    },
    {
      "inputs": [
        {
          "internalType": "string",
          "name": "uri",
          "type": "string"
        }
      ],
      "name": "isContentOwned",
      "outputs": [
        {
          "internalType": "bool",
          "name": "",
          "type": "bool"
        }
      ],
      "stateMutability": "view",
      "type": "function"
    },
    {
      "inputs": [
        {
          "internalType": "string",
          "name": "tokenURI",
          "type": "string"
        }
      ],
      "name": "mint",
      "outputs": [],
      "stateMutability": "payable",
      "type": "function"
    },
    {
      "inputs": [],
      "name": "name",
      "outputs": [
        {
          "internalType": "string",
          "name": "",
          "type": "string"
        }
      ],
      "stateMutability": "view",
      "type": "function"
    },
    {
      "inputs": [],
      "name": "owner",
      "outputs": [
        {
          "internalType": "address",
          "name": "",
          "type": "address"
        }
      ],
      "stateMutability": "view",
      "type": "function"
    },
    {
      "inputs": [
        {
          "internalType": "uint256",
          "name": "tokenId",
          "type": "uint256"
        }
      ],
      "name": "ownerOf",
      "outputs": [
        {
          "internalType": "address",
          "name": "",
          "type": "address"
        }
      ],
      "stateMutability": "view",
      "type": "function"
    },
    {
      "inputs": [],
      "name": "renounceOwnership",
      "outputs": [],
      "stateMutability": "nonpayable",
      "type": "function"
    },
    {
      "inputs": [],
      "name": "returnTokenCounter",
      "outputs": [
        {
          "internalType": "uint256",
          "name": "",
          "type": "uint256"
        }
      ],
      "stateMutability": "view",
      "type": "function"
    },
    {
      "inputs": [
        {
          "internalType": "address",
          "name": "from",
          "type": "address"
        },
        {
          "internalType": "address",
          "name": "to",
          "type": "address"
        },
        {
          "internalType": "uint256",
          "name": "tokenId",
          "type": "uint256"
        }
      ],
      "name": "safeTransferFrom",
      "outputs": [],
      "stateMutability": "nonpayable",
      "type": "function"
    },
    {
      "inputs": [
        {
          "internalType": "address",
          "name": "from",
          "type": "address"
        },
        {
          "internalType": "address",
          "name": "to",
          "type": "address"
        },
        {
          "internalType": "uint256",
          "name": "tokenId",
          "type": "uint256"
        },
        {
          "internalType": "bytes",
          "name": "_data",
          "type": "bytes"
        }
      ],
      "name": "safeTransferFrom",
      "outputs": [],
      "stateMutability": "nonpayable",
      "type": "function"
    },
    {
      "inputs": [
        {
          "internalType": "address",
          "name": "operator",
          "type": "address"
        },
        {
          "internalType": "bool",
          "name": "approved",
          "type": "bool"
        }
      ],
      "name": "setApprovalForAll",
      "outputs": [],
      "stateMutability": "nonpayable",
      "type": "function"
    },
    {
      "inputs": [
        {
          "internalType": "bytes4",
          "name": "interfaceId",
          "type": "bytes4"
        }
      ],
      "name": "supportsInterface",
      "outputs": [
        {
          "internalType": "bool",
          "name": "",
          "type": "bool"
        }
      ],
      "stateMutability": "view",
      "type": "function"
    },
    {
      "inputs": [],
      "name": "symbol",
      "outputs": [
        {
          "internalType": "string",
          "name": "",
          "type": "string"
        }
      ],
      "stateMutability": "view",
      "type": "function"
    },
    {
      "inputs": [],
      "name": "tokenCounter",
      "outputs": [
        {
          "internalType": "uint256",
          "name": "",
          "type": "uint256"
        }
      ],
      "stateMutability": "view",
      "type": "function"
    },
    {
      "inputs": [
        {
          "internalType": "uint256",
          "name": "tokenId",
          "type": "uint256"
        }
      ],
      "name": "tokenURI",
      "outputs": [
        {
          "internalType": "string",
          "name": "",
          "type": "string"
        }
      ],
      "stateMutability": "view",
      "type": "function"
    },
    {
      "inputs": [
        {
          "internalType": "address",
          "name": "from",
          "type": "address"
        },
        {
          "internalType": "address",
          "name": "to",
          "type": "address"
        },
        {
          "internalType": "uint256",
          "name": "tokenId",
          "type": "uint256"
        }
      ],
      "name": "transferFrom",
      "outputs": [],
      "stateMutability": "nonpayable",
      "type": "function"
    },
    {
      "inputs": [
        {
          "internalType": "address",
          "name": "newOwner",
          "type": "address"
        }
      ],
      "name": "transferOwnership",
      "outputs": [],
      "stateMutability": "nonpayable",
      "type": "function"
    },
    {
      "inputs": [],
      "name": "withdrawAllFunds",
      "outputs": [],
      "stateMutability": "nonpayable",
      "type": "function"
    }
  ],
  "bytecode": "0x60806040523480156200001157600080fd5b506040518060400160405280600b81526020017f50726163746973654e46540000000000000000000000000000000000000000008152506040518060400160405280600481526020017f504e465400000000000000000000000000000000000000000000000000000000815250816000908051906020019062000096929190620001ae565b508060019080519060200190620000af929190620001ae565b505050620000d2620000c6620000e060201b60201c565b620000e860201b60201c565b6000600881905550620002c3565b600033905090565b6000600760009054906101000a900473ffffffffffffffffffffffffffffffffffffffff16905081600760006101000a81548173ffffffffffffffffffffffffffffffffffffffff021916908373ffffffffffffffffffffffffffffffffffffffff1602179055508173ffffffffffffffffffffffffffffffffffffffff168173ffffffffffffffffffffffffffffffffffffffff167f8be0079c531659141344cd1fd0a4f28419497f9722a3daafe3b4186f6b6457e060405160405180910390a35050565b828054620001bc906200025e565b90600052602060002090601f016020900481019282620001e057600085556200022c565b82601f10620001fb57805160ff19168380011785556200022c565b828001600101855582156200022c579182015b828111156200022b5782518255916020019190600101906200020e565b5b5090506200023b91906200023f565b5090565b5b808211156200025a57600081600090555060010162000240565b5090565b600060028204905060018216806200027757607f821691505b602082108114156200028e576200028d62000294565b5b50919050565b7f4e487b7100000000000000000000000000000000000000000000000000000000600052602260045260246000fd5b61343080620002d36000396000f3fe6080604052600436106101355760003560e01c806395d89b41116100ab578063c87b56dd1161006f578063c87b56dd14610412578063d082e3811461044f578063d85d3d271461047a578063e985e9c514610496578063f2fde38b146104d3578063f37971df146104fc57610135565b806395d89b411461032d5780639f1cabc6146103585780639fe6d88814610395578063a22cb465146103c0578063b88d4fde146103e957610135565b806342842e0e116100fd57806342842e0e1461023157806349649fbf1461025a5780636352211e1461027157806370a08231146102ae578063715018a6146102eb5780638da5cb5b1461030257610135565b806301ffc9a71461013a57806306fdde0314610177578063081812fc146101a2578063095ea7b3146101df57806323b872dd14610208575b600080fd5b34801561014657600080fd5b50610161600480360381019061015c9190612350565b610539565b60405161016e9190612803565b60405180910390f35b34801561018357600080fd5b5061018c61061b565b604051610199919061281e565b60405180910390f35b3480156101ae57600080fd5b506101c960048036038101906101c491906123e3565b6106ad565b6040516101d6919061279c565b60405180910390f35b3480156101eb57600080fd5b5061020660048036038101906102019190612314565b610732565b005b34801561021457600080fd5b5061022f600480360381019061022a919061220e565b61084a565b005b34801561023d57600080fd5b506102586004803603810190610253919061220e565b6108aa565b005b34801561026657600080fd5b5061026f6108ca565b005b34801561027d57600080fd5b50610298600480360381019061029391906123e3565b61098f565b6040516102a5919061279c565b60405180910390f35b3480156102ba57600080fd5b506102d560048036038101906102d091906121a9565b610a41565b6040516102e29190612a80565b60405180910390f35b3480156102f757600080fd5b50610300610af9565b005b34801561030e57600080fd5b50610317610b81565b604051610324919061279c565b60405180910390f35b34801561033957600080fd5b50610342610bab565b60405161034f919061281e565b60405180910390f35b34801561036457600080fd5b5061037f600480360381019061037a91906123a2565b610c3d565b60405161038c9190612803565b60405180910390f35b3480156103a157600080fd5b506103aa610c78565b6040516103b79190612a80565b60405180910390f35b3480156103cc57600080fd5b506103e760048036038101906103e291906122d8565b610c82565b005b3480156103f557600080fd5b50610410600480360381019061040b919061225d565b610c98565b005b34801561041e57600080fd5b50610439600480360381019061043491906123e3565b610cfa565b604051610446919061281e565b60405180910390f35b34801561045b57600080fd5b50610464610e4c565b6040516104719190612a80565b60405180910390f35b610494600480360381019061048f91906123a2565b610e52565b005b3480156104a257600080fd5b506104bd60048036038101906104b891906121d2565b610faa565b6040516104ca9190612803565b60405180910390f35b3480156104df57600080fd5b506104fa60048036038101906104f591906121a9565b61103e565b005b34801561050857600080fd5b50610523600480360381019061051e91906123a2565b611136565b6040516105309190612a9b565b60405180910390f35b60007f80ac58cd000000000000000000000000000000000000000000000000000000007bffffffffffffffffffffffffffffffffffffffffffffffffffffffff1916827bffffffffffffffffffffffffffffffffffffffffffffffffffffffff1916148061060457507f5b5e139f000000000000000000000000000000000000000000000000000000007bffffffffffffffffffffffffffffffffffffffffffffffffffffffff1916827bffffffffffffffffffffffffffffffffffffffffffffffffffffffff1916145b8061061457506106138261116c565b5b9050919050565b60606000805461062a90612cfe565b80601f016020809104026020016040519081016040528092919081815260200182805461065690612cfe565b80156106a35780601f10610678576101008083540402835291602001916106a3565b820191906000526020600020905b81548152906001019060200180831161068657829003601f168201915b5050505050905090565b60006106b8826111d6565b6106f7576040517f08c379a00000000000000000000000000000000000000000000000000000000081526004016106ee906129e0565b60405180910390fd5b6004600083815260200190815260200160002060009054906101000a900473ffffffffffffffffffffffffffffffffffffffff169050919050565b600061073d8261098f565b90508073ffffffffffffffffffffffffffffffffffffffff168373ffffffffffffffffffffffffffffffffffffffff1614156107ae576040517f08c379a00000000000000000000000000000000000000000000000000000000081526004016107a590612a40565b60405180910390fd5b8073ffffffffffffffffffffffffffffffffffffffff166107cd611242565b73ffffffffffffffffffffffffffffffffffffffff1614806107fc57506107fb816107f6611242565b610faa565b5b61083b576040517f08c379a000000000000000000000000000000000000000000000000000000000815260040161083290612920565b60405180910390fd5b610845838361124a565b505050565b61085b610855611242565b82611303565b61089a576040517f08c379a000000000000000000000000000000000000000000000000000000000815260040161089190612a60565b60405180910390fd5b6108a58383836113e1565b505050565b6108c583838360405180602001604052806000815250610c98565b505050565b6108d2611242565b73ffffffffffffffffffffffffffffffffffffffff166108f0610b81565b73ffffffffffffffffffffffffffffffffffffffff1614610946576040517f08c379a000000000000000000000000000000000000000000000000000000000815260040161093d90612a00565b60405180910390fd5b3373ffffffffffffffffffffffffffffffffffffffff166108fc479081150290604051600060405180830381858888f1935050505015801561098c573d6000803e3d6000fd5b50565b6000806002600084815260200190815260200160002060009054906101000a900473ffffffffffffffffffffffffffffffffffffffff169050600073ffffffffffffffffffffffffffffffffffffffff168173ffffffffffffffffffffffffffffffffffffffff161415610a38576040517f08c379a0000000000000000000000000000000000000000000000000000000008152600401610a2f90612960565b60405180910390fd5b80915050919050565b60008073ffffffffffffffffffffffffffffffffffffffff168273ffffffffffffffffffffffffffffffffffffffff161415610ab2576040517f08c379a0000000000000000000000000000000000000000000000000000000008152600401610aa990612940565b60405180910390fd5b600360008373ffffffffffffffffffffffffffffffffffffffff1673ffffffffffffffffffffffffffffffffffffffff168152602001908152602001600020549050919050565b610b01611242565b73ffffffffffffffffffffffffffffffffffffffff16610b1f610b81565b73ffffffffffffffffffffffffffffffffffffffff1614610b75576040517f08c379a0000000000000000000000000000000000000000000000000000000008152600401610b6c90612a00565b60405180910390fd5b610b7f6000611648565b565b6000600760009054906101000a900473ffffffffffffffffffffffffffffffffffffffff16905090565b606060018054610bba90612cfe565b80601f0160208091040260200160405190810160405280929190818152602001828054610be690612cfe565b8015610c335780601f10610c0857610100808354040283529160200191610c33565b820191906000526020600020905b815481529060010190602001808311610c1657829003601f168201915b5050505050905090565b60006001600983604051610c519190612761565b908152602001604051809103902060009054906101000a900460ff1660ff16149050919050565b6000600854905090565b610c94610c8d611242565b838361170e565b5050565b610ca9610ca3611242565b83611303565b610ce8576040517f08c379a0000000000000000000000000000000000000000000000000000000008152600401610cdf90612a60565b60405180910390fd5b610cf48484848461187b565b50505050565b6060610d05826111d6565b610d44576040517f08c379a0000000000000000000000000000000000000000000000000000000008152600401610d3b906129c0565b60405180910390fd5b6000600660008481526020019081526020016000208054610d6490612cfe565b80601f0160208091040260200160405190810160405280929190818152602001828054610d9090612cfe565b8015610ddd5780601f10610db257610100808354040283529160200191610ddd565b820191906000526020600020905b815481529060010190602001808311610dc057829003601f168201915b505050505090506000610dee6118d7565b9050600081511415610e04578192505050610e47565b600082511115610e39578082604051602001610e21929190612778565b60405160208183030381529060405292505050610e47565b610e42846118ee565b925050505b919050565b60085481565b601460085410610e8e576040517f36b1f47c00000000000000000000000000000000000000000000000000000000815260040160405180910390fd5b6001600982604051610ea09190612761565b908152602001604051809103902060009054906101000a900460ff1660ff161415610ef7576040517feba047f800000000000000000000000000000000000000000000000000000000815260040160405180910390fd5b67016345785d8a0000341015610f39576040517fb627252400000000000000000000000000000000000000000000000000000000815260040160405180910390fd5b60006008549050610f4a3382611995565b610f5481836119b3565b6001600983604051610f669190612761565b908152602001604051809103902060006101000a81548160ff021916908360ff160217905550600160086000828254610f9f9190612b80565b925050819055505050565b6000600560008473ffffffffffffffffffffffffffffffffffffffff1673ffffffffffffffffffffffffffffffffffffffff16815260200190815260200160002060008373ffffffffffffffffffffffffffffffffffffffff1673ffffffffffffffffffffffffffffffffffffffff16815260200190815260200160002060009054906101000a900460ff16905092915050565b611046611242565b73ffffffffffffffffffffffffffffffffffffffff16611064610b81565b73ffffffffffffffffffffffffffffffffffffffff16146110ba576040517f08c379a00000000000000000000000000000000000000000000000000000000081526004016110b190612a00565b60405180910390fd5b600073ffffffffffffffffffffffffffffffffffffffff168173ffffffffffffffffffffffffffffffffffffffff16141561112a576040517f08c379a000000000000000000000000000000000000000000000000000000000815260040161112190612860565b60405180910390fd5b61113381611648565b50565b6009818051602081018201805184825260208301602085012081835280955050505050506000915054906101000a900460ff1681565b60007f01ffc9a7000000000000000000000000000000000000000000000000000000007bffffffffffffffffffffffffffffffffffffffffffffffffffffffff1916827bffffffffffffffffffffffffffffffffffffffffffffffffffffffff1916149050919050565b60008073ffffffffffffffffffffffffffffffffffffffff166002600084815260200190815260200160002060009054906101000a900473ffffffffffffffffffffffffffffffffffffffff1673ffffffffffffffffffffffffffffffffffffffff1614159050919050565b600033905090565b816004600083815260200190815260200160002060006101000a81548173ffffffffffffffffffffffffffffffffffffffff021916908373ffffffffffffffffffffffffffffffffffffffff160217905550808273ffffffffffffffffffffffffffffffffffffffff166112bd8361098f565b73ffffffffffffffffffffffffffffffffffffffff167f8c5be1e5ebec7d5bd14f71427d1e84f3dd0314c0f7b2291e5b200ac8c7c3b92560405160405180910390a45050565b600061130e826111d6565b61134d576040517f08c379a000000000000000000000000000000000000000000000000000000000815260040161134490612900565b60405180910390fd5b60006113588361098f565b90508073ffffffffffffffffffffffffffffffffffffffff168473ffffffffffffffffffffffffffffffffffffffff16148061139a57506113998185610faa565b5b806113d857508373ffffffffffffffffffffffffffffffffffffffff166113c0846106ad565b73ffffffffffffffffffffffffffffffffffffffff16145b91505092915050565b8273ffffffffffffffffffffffffffffffffffffffff166114018261098f565b73ffffffffffffffffffffffffffffffffffffffff1614611457576040517f08c379a000000000000000000000000000000000000000000000000000000000815260040161144e90612880565b60405180910390fd5b600073ffffffffffffffffffffffffffffffffffffffff168273ffffffffffffffffffffffffffffffffffffffff1614156114c7576040517f08c379a00000000000000000000000000000000000000000000000000000000081526004016114be906128c0565b60405180910390fd5b6114d2838383611a27565b6114dd60008261124a565b6001600360008573ffffffffffffffffffffffffffffffffffffffff1673ffffffffffffffffffffffffffffffffffffffff168152602001908152602001600020600082825461152d9190612c07565b925050819055506001600360008473ffffffffffffffffffffffffffffffffffffffff1673ffffffffffffffffffffffffffffffffffffffff16815260200190815260200160002060008282546115849190612b80565b92505081905550816002600083815260200190815260200160002060006101000a81548173ffffffffffffffffffffffffffffffffffffffff021916908373ffffffffffffffffffffffffffffffffffffffff160217905550808273ffffffffffffffffffffffffffffffffffffffff168473ffffffffffffffffffffffffffffffffffffffff167fddf252ad1be2c89b69c2b068fc378daa952ba7f163c4a11628f55a4df523b3ef60405160405180910390a4611643838383611a2c565b505050565b6000600760009054906101000a900473ffffffffffffffffffffffffffffffffffffffff16905081600760006101000a81548173ffffffffffffffffffffffffffffffffffffffff021916908373ffffffffffffffffffffffffffffffffffffffff1602179055508173ffffffffffffffffffffffffffffffffffffffff168173ffffffffffffffffffffffffffffffffffffffff167f8be0079c531659141344cd1fd0a4f28419497f9722a3daafe3b4186f6b6457e060405160405180910390a35050565b8173ffffffffffffffffffffffffffffffffffffffff168373ffffffffffffffffffffffffffffffffffffffff16141561177d576040517f08c379a0000000000000000000000000000000000000000000000000000000008152600401611774906128e0565b60405180910390fd5b80600560008573ffffffffffffffffffffffffffffffffffffffff1673ffffffffffffffffffffffffffffffffffffffff16815260200190815260200160002060008473ffffffffffffffffffffffffffffffffffffffff1673ffffffffffffffffffffffffffffffffffffffff16815260200190815260200160002060006101000a81548160ff0219169083151502179055508173ffffffffffffffffffffffffffffffffffffffff168373ffffffffffffffffffffffffffffffffffffffff167f17307eab39ab6107e8899845ad3d59bd9653f200f220920489ca2b5937696c318360405161186e9190612803565b60405180910390a3505050565b6118868484846113e1565b61189284848484611a31565b6118d1576040517f08c379a00000000000000000000000000000000000000000000000000000000081526004016118c890612840565b60405180910390fd5b50505050565b606060405180602001604052806000815250905090565b60606118f9826111d6565b611938576040517f08c379a000000000000000000000000000000000000000000000000000000000815260040161192f90612a20565b60405180910390fd5b60006119426118d7565b90506000815111611962576040518060200160405280600081525061198d565b8061196c84611bc8565b60405160200161197d929190612778565b6040516020818303038152906040525b915050919050565b6119af828260405180602001604052806000815250611d75565b5050565b6119bc826111d6565b6119fb576040517f08c379a00000000000000000000000000000000000000000000000000000000081526004016119f290612980565b60405180910390fd5b80600660008481526020019081526020016000209080519060200190611a22929190611fcd565b505050565b505050565b505050565b6000611a528473ffffffffffffffffffffffffffffffffffffffff16611dd0565b15611bbb578373ffffffffffffffffffffffffffffffffffffffff1663150b7a02611a7b611242565b8786866040518563ffffffff1660e01b8152600401611a9d94939291906127b7565b602060405180830381600087803b158015611ab757600080fd5b505af1925050508015611ae857506040513d601f19601f82011682018060405250810190611ae59190612379565b60015b611b6b573d8060008114611b18576040519150601f19603f3d011682016040523d82523d6000602084013e611b1d565b606091505b50600081511415611b63576040517f08c379a0000000000000000000000000000000000000000000000000000000008152600401611b5a90612840565b60405180910390fd5b805181602001fd5b63150b7a0260e01b7bffffffffffffffffffffffffffffffffffffffffffffffffffffffff1916817bffffffffffffffffffffffffffffffffffffffffffffffffffffffff191614915050611bc0565b600190505b949350505050565b60606000821415611c10576040518060400160405280600181526020017f30000000000000000000000000000000000000000000000000000000000000008152509050611d70565b600082905060005b60008214611c42578080611c2b90612d61565b915050600a82611c3b9190612bd6565b9150611c18565b60008167ffffffffffffffff811115611c84577f4e487b7100000000000000000000000000000000000000000000000000000000600052604160045260246000fd5b6040519080825280601f01601f191660200182016040528015611cb65781602001600182028036833780820191505090505b5090505b60008514611d6957600182611ccf9190612c07565b9150600a85611cde9190612daa565b6030611cea9190612b80565b60f81b818381518110611d26577f4e487b7100000000000000000000000000000000000000000000000000000000600052603260045260246000fd5b60200101907effffffffffffffffffffffffffffffffffffffffffffffffffffffffffffff1916908160001a905350600a85611d629190612bd6565b9450611cba565b8093505050505b919050565b611d7f8383611df3565b611d8c6000848484611a31565b611dcb576040517f08c379a0000000000000000000000000000000000000000000000000000000008152600401611dc290612840565b60405180910390fd5b505050565b6000808273ffffffffffffffffffffffffffffffffffffffff163b119050919050565b600073ffffffffffffffffffffffffffffffffffffffff168273ffffffffffffffffffffffffffffffffffffffff161415611e63576040517f08c379a0000000000000000000000000000000000000000000000000000000008152600401611e5a906129a0565b60405180910390fd5b611e6c816111d6565b15611eac576040517f08c379a0000000000000000000000000000000000000000000000000000000008152600401611ea3906128a0565b60405180910390fd5b611eb860008383611a27565b6001600360008473ffffffffffffffffffffffffffffffffffffffff1673ffffffffffffffffffffffffffffffffffffffff1681526020019081526020016000206000828254611f089190612b80565b92505081905550816002600083815260200190815260200160002060006101000a81548173ffffffffffffffffffffffffffffffffffffffff021916908373ffffffffffffffffffffffffffffffffffffffff160217905550808273ffffffffffffffffffffffffffffffffffffffff16600073ffffffffffffffffffffffffffffffffffffffff167fddf252ad1be2c89b69c2b068fc378daa952ba7f163c4a11628f55a4df523b3ef60405160405180910390a4611fc960008383611a2c565b5050565b828054611fd990612cfe565b90600052602060002090601f016020900481019282611ffb5760008555612042565b82601f1061201457805160ff1916838001178555612042565b82800160010185558215612042579182015b82811115612041578251825591602001919060010190612026565b5b50905061204f9190612053565b5090565b5b8082111561206c576000816000905550600101612054565b5090565b600061208361207e84612adb565b612ab6565b90508281526020810184848401111561209b57600080fd5b6120a6848285612cbc565b509392505050565b60006120c16120bc84612b0c565b612ab6565b9050828152602081018484840111156120d957600080fd5b6120e4848285612cbc565b509392505050565b6000813590506120fb8161339e565b92915050565b600081359050612110816133b5565b92915050565b600081359050612125816133cc565b92915050565b60008151905061213a816133cc565b92915050565b600082601f83011261215157600080fd5b8135612161848260208601612070565b91505092915050565b600082601f83011261217b57600080fd5b813561218b8482602086016120ae565b91505092915050565b6000813590506121a3816133e3565b92915050565b6000602082840312156121bb57600080fd5b60006121c9848285016120ec565b91505092915050565b600080604083850312156121e557600080fd5b60006121f3858286016120ec565b9250506020612204858286016120ec565b9150509250929050565b60008060006060848603121561222357600080fd5b6000612231868287016120ec565b9350506020612242868287016120ec565b925050604061225386828701612194565b9150509250925092565b6000806000806080858703121561227357600080fd5b6000612281878288016120ec565b9450506020612292878288016120ec565b93505060406122a387828801612194565b925050606085013567ffffffffffffffff8111156122c057600080fd5b6122cc87828801612140565b91505092959194509250565b600080604083850312156122eb57600080fd5b60006122f9858286016120ec565b925050602061230a85828601612101565b9150509250929050565b6000806040838503121561232757600080fd5b6000612335858286016120ec565b925050602061234685828601612194565b9150509250929050565b60006020828403121561236257600080fd5b600061237084828501612116565b91505092915050565b60006020828403121561238b57600080fd5b60006123998482850161212b565b91505092915050565b6000602082840312156123b457600080fd5b600082013567ffffffffffffffff8111156123ce57600080fd5b6123da8482850161216a565b91505092915050565b6000602082840312156123f557600080fd5b600061240384828501612194565b91505092915050565b61241581612c3b565b82525050565b61242481612c4d565b82525050565b600061243582612b3d565b61243f8185612b53565b935061244f818560208601612ccb565b61245881612e97565b840191505092915050565b600061246e82612b48565b6124788185612b64565b9350612488818560208601612ccb565b61249181612e97565b840191505092915050565b60006124a782612b48565b6124b18185612b75565b93506124c1818560208601612ccb565b80840191505092915050565b60006124da603283612b64565b91506124e582612ea8565b604082019050919050565b60006124fd602683612b64565b915061250882612ef7565b604082019050919050565b6000612520602583612b64565b915061252b82612f46565b604082019050919050565b6000612543601c83612b64565b915061254e82612f95565b602082019050919050565b6000612566602483612b64565b915061257182612fbe565b604082019050919050565b6000612589601983612b64565b91506125948261300d565b602082019050919050565b60006125ac602c83612b64565b91506125b782613036565b604082019050919050565b60006125cf603883612b64565b91506125da82613085565b604082019050919050565b60006125f2602a83612b64565b91506125fd826130d4565b604082019050919050565b6000612615602983612b64565b915061262082613123565b604082019050919050565b6000612638602e83612b64565b915061264382613172565b604082019050919050565b600061265b602083612b64565b9150612666826131c1565b602082019050919050565b600061267e603183612b64565b9150612689826131ea565b604082019050919050565b60006126a1602c83612b64565b91506126ac82613239565b604082019050919050565b60006126c4602083612b64565b91506126cf82613288565b602082019050919050565b60006126e7602f83612b64565b91506126f2826132b1565b604082019050919050565b600061270a602183612b64565b915061271582613300565b604082019050919050565b600061272d603183612b64565b91506127388261334f565b604082019050919050565b61274c81612ca5565b82525050565b61275b81612caf565b82525050565b600061276d828461249c565b915081905092915050565b6000612784828561249c565b9150612790828461249c565b91508190509392505050565b60006020820190506127b1600083018461240c565b92915050565b60006080820190506127cc600083018761240c565b6127d9602083018661240c565b6127e66040830185612743565b81810360608301526127f8818461242a565b905095945050505050565b6000602082019050612818600083018461241b565b92915050565b600060208201905081810360008301526128388184612463565b905092915050565b60006020820190508181036000830152612859816124cd565b9050919050565b60006020820190508181036000830152612879816124f0565b9050919050565b6000602082019050818103600083015261289981612513565b9050919050565b600060208201905081810360008301526128b981612536565b9050919050565b600060208201905081810360008301526128d981612559565b9050919050565b600060208201905081810360008301526128f98161257c565b9050919050565b600060208201905081810360008301526129198161259f565b9050919050565b60006020820190508181036000830152612939816125c2565b9050919050565b60006020820190508181036000830152612959816125e5565b9050919050565b6000602082019050818103600083015261297981612608565b9050919050565b600060208201905081810360008301526129998161262b565b9050919050565b600060208201905081810360008301526129b98161264e565b9050919050565b600060208201905081810360008301526129d981612671565b9050919050565b600060208201905081810360008301526129f981612694565b9050919050565b60006020820190508181036000830152612a19816126b7565b9050919050565b60006020820190508181036000830152612a39816126da565b9050919050565b60006020820190508181036000830152612a59816126fd565b9050919050565b60006020820190508181036000830152612a7981612720565b9050919050565b6000602082019050612a956000830184612743565b92915050565b6000602082019050612ab06000830184612752565b92915050565b6000612ac0612ad1565b9050612acc8282612d30565b919050565b6000604051905090565b600067ffffffffffffffff821115612af657612af5612e68565b5b612aff82612e97565b9050602081019050919050565b600067ffffffffffffffff821115612b2757612b26612e68565b5b612b3082612e97565b9050602081019050919050565b600081519050919050565b600081519050919050565b600082825260208201905092915050565b600082825260208201905092915050565b600081905092915050565b6000612b8b82612ca5565b9150612b9683612ca5565b9250827fffffffffffffffffffffffffffffffffffffffffffffffffffffffffffffffff03821115612bcb57612bca612ddb565b5b828201905092915050565b6000612be182612ca5565b9150612bec83612ca5565b925082612bfc57612bfb612e0a565b5b828204905092915050565b6000612c1282612ca5565b9150612c1d83612ca5565b925082821015612c3057612c2f612ddb565b5b828203905092915050565b6000612c4682612c85565b9050919050565b60008115159050919050565b60007fffffffff0000000000000000000000000000000000000000000000000000000082169050919050565b600073ffffffffffffffffffffffffffffffffffffffff82169050919050565b6000819050919050565b600060ff82169050919050565b82818337600083830152505050565b60005b83811015612ce9578082015181840152602081019050612cce565b83811115612cf8576000848401525b50505050565b60006002820490506001821680612d1657607f821691505b60208210811415612d2a57612d29612e39565b5b50919050565b612d3982612e97565b810181811067ffffffffffffffff82111715612d5857612d57612e68565b5b80604052505050565b6000612d6c82612ca5565b91507fffffffffffffffffffffffffffffffffffffffffffffffffffffffffffffffff821415612d9f57612d9e612ddb565b5b600182019050919050565b6000612db582612ca5565b9150612dc083612ca5565b925082612dd057612dcf612e0a565b5b828206905092915050565b7f4e487b7100000000000000000000000000000000000000000000000000000000600052601160045260246000fd5b7f4e487b7100000000000000000000000000000000000000000000000000000000600052601260045260246000fd5b7f4e487b7100000000000000000000000000000000000000000000000000000000600052602260045260246000fd5b7f4e487b7100000000000000000000000000000000000000000000000000000000600052604160045260246000fd5b6000601f19601f8301169050919050565b7f4552433732313a207472616e7366657220746f206e6f6e20455243373231526560008201527f63656976657220696d706c656d656e7465720000000000000000000000000000602082015250565b7f4f776e61626c653a206e6577206f776e657220697320746865207a65726f206160008201527f6464726573730000000000000000000000000000000000000000000000000000602082015250565b7f4552433732313a207472616e736665722066726f6d20696e636f72726563742060008201527f6f776e6572000000000000000000000000000000000000000000000000000000602082015250565b7f4552433732313a20746f6b656e20616c7265616479206d696e74656400000000600082015250565b7f4552433732313a207472616e7366657220746f20746865207a65726f2061646460008201527f7265737300000000000000000000000000000000000000000000000000000000602082015250565b7f4552433732313a20617070726f766520746f2063616c6c657200000000000000600082015250565b7f4552433732313a206f70657261746f7220717565727920666f72206e6f6e657860008201527f697374656e7420746f6b656e0000000000000000000000000000000000000000602082015250565b7f4552433732313a20617070726f76652063616c6c6572206973206e6f74206f7760008201527f6e6572206e6f7220617070726f76656420666f7220616c6c0000000000000000602082015250565b7f4552433732313a2062616c616e636520717565727920666f7220746865207a6560008201527f726f206164647265737300000000000000000000000000000000000000000000602082015250565b7f4552433732313a206f776e657220717565727920666f72206e6f6e657869737460008201527f656e7420746f6b656e0000000000000000000000000000000000000000000000602082015250565b7f45524337323155524953746f726167653a2055524920736574206f66206e6f6e60008201527f6578697374656e7420746f6b656e000000000000000000000000000000000000602082015250565b7f4552433732313a206d696e7420746f20746865207a65726f2061646472657373600082015250565b7f45524337323155524953746f726167653a2055524920717565727920666f722060008201527f6e6f6e6578697374656e7420746f6b656e000000000000000000000000000000602082015250565b7f4552433732313a20617070726f76656420717565727920666f72206e6f6e657860008201527f697374656e7420746f6b656e0000000000000000000000000000000000000000602082015250565b7f4f776e61626c653a2063616c6c6572206973206e6f7420746865206f776e6572600082015250565b7f4552433732314d657461646174613a2055524920717565727920666f72206e6f60008201527f6e6578697374656e7420746f6b656e0000000000000000000000000000000000602082015250565b7f4552433732313a20617070726f76616c20746f2063757272656e74206f776e6560008201527f7200000000000000000000000000000000000000000000000000000000000000602082015250565b7f4552433732313a207472616e736665722063616c6c6572206973206e6f74206f60008201527f776e6572206e6f7220617070726f766564000000000000000000000000000000602082015250565b6133a781612c3b565b81146133b257600080fd5b50565b6133be81612c4d565b81146133c957600080fd5b50565b6133d581612c59565b81146133e057600080fd5b50565b6133ec81612ca5565b81146133f757600080fd5b5056fea2646970667358221220e4aaafa5c49f9d9979be97d3d4fe4210245e81fd2147e0b55baa293d60e5c62164736f6c63430008040033",
  "linkReferences": {},
  "deployedLinkReferences": {}
}